:1000000097C0BBC0E7C0B9C00EC6B7C0B6C0B5C0C8
:10001000B4C0B3C0B2C0B1C0B0C0AFC0AEC02A2B74
:1000200028000000000000000000000000000000A8
:100030000029000000002C9EB4A0A1A2A434A6A711
:10004000A5AE362D3738271E1F2021222324252632
:10005000B333B62EB7B89F8485868788898A8B8C00
:100060008D8E8F909192939495969798999A9B9C48
:100070009D2F3130A3AD350405060708090A0B0C86
:100080000D0E0F101112131415161718191A1B1C28
:100090001DAFB1B0B505010906A101050719E02999
:1000A000E715002501750195088102950175082560
:1000B00065190029658100C0090222000101008044
:1000C00032090400000103010100092101010001BE
:1000D0002223000705810308000A12011001000015
:1000E0000008C016DB2700010102000110034400D4
:1000F0006900670069004B00650079001C0364001B
:100100006900670069007300740075006D0070007D
:100110002E0063006F006D0004030904010204084F
:1001200010200101010101010036003800372C04C4
:1001300011241FBECFE5D2E0DEBFCDBF10E0A0E6A8
:10014000B0E0E6ECFEE002C005900D92A238B107E7
:10015000D9F720E0A2E8B0E001C01D92AF3FB2079E
:10016000E1F711E0C0E3D1E003C02297FE01A5D67C
:10017000CE32D107D1F744D5A4C642CFA82FB92F8C
:1001800080E090E041E050EA609530E009C02D91B8
:1001900082279795879510F084279527305EC8F3BE
:1001A0006F5FA8F30895EADF8D939D930895A6E00D
:1001B00088279927AA9569F00197E1F3B399FCCFB5
:1001C000B39BFECF81E09927A6B3019611F0A871E9
:1001D000D9F70895CF93CFB7CF93C395B39BE9F7E2
:1001E000B39B0BC0B39B09C0B39B07C0B39B05C0B7
:1001F000B39B03C0B39B01C0D5C00F92DF93C091E6
:10020000E200DD27C751DF4F012EB39B03C0DF9112
:100210000F90E6CF2F930F931F934F932FEF4F6FB6
:1002200006B303FB20F95F933F9350E03BE065C0CA
:1002300016B30126502953FDC89556B3012703FB79
:1002400025F92F7306B3B1F05027102713FB26F9B9
:1002500006B22230F0F000C016B3012703FB27F9E5
:100260000126502906B22430E8F54F77206816B3EE
:100270000000F6CF50274F7D206206B2102F0000FD
:1002800000C006B300265029102713FB26F906B23A
:10029000E2CF4F7B06B3206400C0DACF012650299D
:1002A000187106B269F14E7F2160012F16B328C084
:1002B000002650294D7F06B22260102F29C001264A
:1002C00050294B7F06B22460012F2DC016B30126A2
:1002D0005029477F2860000006B22EC04F7E06B32B
:1002E000206130C0422706B34993002650291027C9
:1002F00006B24FEF13FB20F9297F16B379F218717C
:1003000059F10126502906B2012703FB21F9237F69
:1003100006B371F2002650293150D0F006B21027F2
:1003200013FB22F9277E16B351F20126502901272B
:1003300003FB06B223F92F7C49F2000006B3102715
:1003400013FB24F90026502906B22F7939F270CF19
:1003500010E21ABF002719C03B503195C31BD04093
:1003600010E21ABF0881033C09F10B34F9F0209127
:10037000E0001981110F1213EDCF4A81441F093695
:1003800051F10D3211F0013E29F70093E7003F9142
:100390005F914F911F910F912F91DF910F90CAB7ED
:1003A000C5FD1BCFCF91CFBFCF9118952091E7000E
:1003B000222369F31091E500112379F534307AF1A5
:1003C0003093E5002093E1001091E2003BE0311B07
:1003D0003093E20024C00091E5000130F4F40AE516
:1003E0004F7049F43091770034FD1AC000937700C4
:1003F000C9ECD0E019C03091D40034FD11C0009395
:10040000D400C5EDD0E010C0052710E000C021C029
:10041000052710E0C89508BB14C03AE501C032EDCD
:10042000032EC0E0D0E032E017B31861C39A08B3DE
:1004300017BB58E120E84FEF20FF052708BB2795A1
:1004400017951C3F28F700004552B0F720FF0527FD
:10045000279508BB17951C3FB8F629913A9561F787
:10046000077E1091E600110F08BBC250D04011F07A
:100470001093E00010E21ABF086017B3177E402FF8
:10048000477E54E05A95F1F708BB17BB48BB7FCFB6
:100490000F931F93CF93DF9300D0CDB7DEB78C01BE
:1004A0008091D40084FD0CC04A83698353D280E9D3
:1004B00090E50197F1F700C0000069814A81F0CF13
:1004C000F8014283638362E0C80102960F900F90A7
:1004D000DF91CF911F910F9119C2CF93DF93EC0160
:1004E000D7DF40E060E0CE01DF91CF91D1CFE62FA2
:1004F000F0E0EA5EFF4F6491262F30E0220F232FB9
:10050000221F330B232B11F040E201C040E06F7734
:10051000E4DF81E090E00895FC018BEB90E09093A4
:10052000E4008093E30080818076803231F4818121
:100530008A3019F483818093BD0080E00895CF93C1
:10054000DF93C6E6D0E08881229660E012D480E096
:10055000CE36D807C1F761E086E00BD440E060E01A
:1005600089EB90E0DF91CF91B8CFCF93DF9382E119
:1005700090E090938A00809389008FE090E09093C0
:1005800088008093870066E670E0CDE8D0E08EE6D4
:1005900090E0E7E9F0E041E0DB012C916E5F7F4FF6
:1005A0002883DC012D913D91CD013A8329839F0160
:1005B00027503109D9011C922F5F3F4FD9011C925E
:1005C0002F5F3F4FD9011C922F5F3F4FD9011C92E3
:1005D0002F5F3F4FD9011C922F5F3F4FD9011C92D3
:1005E0002F5F3F4FD9011C9240832B963B96B0E082
:1005F0006E367B0789F6DF91CF910895A0DFB5CFE6
:10060000DF92EF92FF920F931F93CF93DF9303E953
:1006100010E0C0E0D0E0EE24E394F12C20918C00B7
:10062000CE016BE070E036D483579F4F820F911D4F
:10063000FC01D3808D2D90E000908B0002C0959539
:1006400087950A94E2F78170F8018083369780815C
:10065000F6D390918B0081110AC0970102C0220F3E
:10066000331F9A95E2F7C9012D2D282B09C0F701F8
:1006700002C0EE0FFF1F9A95E2F72E2F20952D2135
:1006800030918C00CE016BE070E004D483579F4F13
:10069000830F911DFC0123832196055F1F4FC430FA
:1006A000D10509F0BBCFDF91CF911F910F91FF9042
:1006B000EF90DF90089540918C0081E090E00090F1
:1006C0008B0002C0880F991F0A94E2F7E4E9F0E07A
:1006D00050E0DF01A40FB51F14972C9130E02823C0
:1006E0003923232B19F020812F5F2083DF011197FD
:1006F0002C91222319F02081215020833B9620E069
:10070000E03CF20731F7089580918B008F5F809372
:100710008B00883059F410928B0080918C008F5F91
:1007200080938C00833011F410928C000895BF9256
:10073000CF92DF92EF92FF920F931F93CF93DF93AD
:1007400010928600C5E9D0E06EE8C62E60E0D62E95
:1007500007E910E074E9E72E70E0F72EBB24B394AC
:100760008881F801319780838881F701208130E00A
:10077000882359F0809187009091880028173907C5
:10078000ECF4B092860018820AC0809189009091A2
:100790008A008217930794F4B0928600B882F80119
:1007A0008081882359F040E0F601608189EB90E078
:1007B00094DE40E060E089EB90E08FDE2B96FBE07A
:1007C000CF0ED11C055F1F4F8BE0E80EF11CE0E05F
:1007D000C13CDE0729F6DF91CF911F910F91FF9069
:1007E000EF90DF90CF90BF90089564D22091820067
:1007F00030918300621B730B7093850060938400BB
:10080000603184E078072CF480E194E0861B970B3C
:1008100075D250D270938300609382000895E7E907
:10082000F0E080E0DF0112979C91992319F090810C
:10083000911181E03B9690E0E33CF90799F788231A
:1008400011F061E001C060E086E0CAC2D9DE33DFAA
:100850005BDF6DDFE4DFC9CF8CE790E09093BA00F7
:100860008093B900F894BB9A27EA86E99CE021506E
:1008700080409040E1F700C00000BB987FD17894A1
:100880001092BC001092BB0062E08BEB90E03EC087
:10089000DF92EF92FF920F931F93CF93DF93C8E005
:1008A000D0E0F12C80E8E82EDF2CDE0CD1BE7FDC1E
:1008B0008C01043389E018070CF4FD2CE694219791
:1008C00099F78FEF8F0D81BFCF2DD0E0219681B7A3
:1008D00090E0C817D9078CF06ADC8453994097FFE1
:1008E00003C09195819591098017910714F4F1B691
:1008F0008C0181B78F5F81BFEACFF1BEDF91CF91CD
:100900001F910F91FF90EF90DF900895CF93C62F26
:100910002091D40024FF07C02091D50038E8232778
:100920002093D50003C02AE52093D400DC01E6ED36
:10093000F0E09C2F9E0F8D918193892F8E1B1816AE
:10094000D4F36C2F86ED90E02EDCCC5FC093D40006
:10095000CF910895CF93DF938091E500835087FD79
:10096000A8C09091E2002091E1002D3209F09FC0D3
:10097000883009F09CC0CCE0D0E0C91BD109C75138
:10098000DF4F83EC8093C9008AE580937700109253
:10099000BF008881807619F0CE01BEDD7FC09A81CC
:1009A0001092D2008981811106C01092D30022EDED
:1009B00030E082E06FC0853019F49093E60067C0A4
:1009C000863009F04EC08B81813041F48AED90E091
:1009D0009093E4008093E30082E13FC0823041F4D1
:1009E00088EB90E09093E4008093E30082E235C0CE
:1009F0008330F1F4911108C088E191E09093E40014
:100A00008093E30084E029C0913041F48CEF90E0C2
:100A10009093E4008093E3008CE11FC09230E1F4F6
:100A20008CEE90E09093E4008093E30080E115C0A9
:100A3000813241F48AEC90E09093E4008093E300EB
:100A400089E00BC0823241F485E990E09093E400A4
:100A50008093E30083E201C080E090E49093BF00C4
:100A60001DC0883069F0893019F49093E8000FC0F8
:100A70008A3049F08B3059F48BE48093D50007C05D
:100A800028EE30E002C022ED30E081E003C022ED2C
:100A900030E080E03093E4002093E3009F819111E7
:100AA00004C09E81981708F4892F809376001092D5
:100AB000E5008091770084FF46C0809176008F3FEB
:100AC00009F441C0C82F893008F0C8E08C1B80931E
:100AD00076008091C90098E889278093C900CC23CB
:100AE00031F12091E3003091E4008091BF0086FF56
:100AF0000BC0AAECB0E0F9018C2F8A0F94919D9362
:100B000031968A13FBCF09C0D901EAECF0E08C2FB3
:100B10008E0F9D9191938E13FCCF8FEF8C0F90E0F1
:100B20000196820F931F9093E4008093E3006C2F53
:100B30008AEC90E038DBCC5FCC3019F08FEF8093FB
:100B40007600C093770084E196B3987131F48150B8
:100B5000D9F71092E6001092E000C1E08111C0E0E8
:100B60008091BE008C1739F0C11103C0F89490DE5B
:100B70007894C093BE00DF91CF910895AC9A8BB763
:100B800080628BBF8BE48093D5008AE58093D4008C
:100B900008950F931F93CF93DF93EC018B01F8011E
:100BA00061918F01662341F0E881F9810190F08124
:100BB000E02DCE010995F3CFDF91CF911F910F91D9
:100BC0000895EF92FF920F931F93CF93DF937C01D1
:100BD0008A01EB01060F171FC017D10751F0699169
:100BE000D701ED91FC910190F081E02DC7010995AD
:100BF000F3CFDF91CF911F910F91FF90EF90089568
:100C00009FD0FCDC23DEFECF83B7887F83BF8AB50D
:100C10008C7F81608ABD83B7877F83BF83B7887FDE
:100C2000836083BF089578941F920F920FB60F923E
:100C300011242F933F938F939F93AF93BF938091F2
:100C4000C1009091C200A091C300B091C400309146
:100C5000C0002CE7230F2D3728F02FEF230F01962C
:100C6000A11DB11D2093C0008093C1009093C200CC
:100C7000A093C300B093C4008091C5009091C600BA
:100C8000A091C700B091C8000196A11DB11D80932D
:100C9000C5009093C600A093C700B093C800BF9151
:100CA000AF919F918F913F912F910F900FBE0F9019
:100CB0001F9018953FB7F8948091C5009091C60099
:100CC000A091C700B091C8002FB508B602FE05C0BC
:100CD0002F3F19F00196A11DB11D3FBF6627782F48
:100CE000892F9A2F620F711D811D911D42E0660FA1
:100CF000771F881F991F4A95D1F708958E7F8230FC
:100D00009105E8F000000000000000000000000075
:100D100000000000000000000000000000000000D3
:100D200000000000000000000000000000000000C3
:100D3000000000000000000000000297E0CF0895CE
:100D4000789480B7806880BF80B7806480BF8CB59E
:100D500080648CBD8FEF8DBD80B7807F876080BF42
:100D600089B7846089BF50DF86B1876086B9379ABA
:100D70000895CF93DF9390E0FC01E45EFE4F249151
:100D8000FC01EE5DFE4F8491882339F190E0FC0177
:100D9000E45DFE4FA491B0E0FC01E65DFE4F84915E
:100DA000611106C09FB7F8948C912095822313C0DF
:100DB000623069F4C82FD0E09FB7F8948C91322F3D
:100DC000309583238C938881822B888305C09FB7BD
:100DD000F8948C91822B8C939FBFDF91CF910895D3
:100DE000A82FB0E0FD01E45EFE4F9491FD01EE5DA1
:100DF000FE4FE491EE2311F1811103C08AB58F7388
:100E000004C0813021F48AB58F7C8ABD05C084304E
:100E100019F48CB58F7C8CBDF0E0E65DFE4FA4919B
:100E2000B0E02FB7611105C0F8948C91909589239B
:100E300003C0F8948C91892B8C932FBF0895282F91
:100E400030E0F901E45EFE4F9491F901EE5DFE4F52
:100E5000E491EE23E1F0811103C08AB58F7304C0E1
:100E6000813021F48AB58F7C8ABD05C0843019F4A5
:100E70008CB58F7C8CBDF0E0E85DFE4FE491F0E036
:100E80002081292381E090E021F480E0089580E032
:100E900090E008950024552704C0080E591F880FBC
:100EA000991F009729F076956795B8F37105B9F702
:100EB000802D952F0895EE0FFF1F0590F491E02DE2
:060EC0000994F894FFCF35
:100EC6000000FF00800000000100020005002C0069
:100ED60050004F005200FF5A000000007702C9057B
:020EE600E10524
:00000001FF
