:1000000098C0BCC0E8C0BAC014C6B8C0B7C0B6C0BB
:10001000B5C0B4C0B3C0B2C0B1C0B0C0AFC02A2B6D
:1000200028000000000000000000000000000000A8
:100030000029000000002C9EB4A0A1A2A434A6A711
:10004000A5AE362D3738271E1F2021222324252632
:10005000B333B62EB7B89F8485868788898A8B8C00
:100060008D8E8F909192939495969798999A9B9C48
:100070009D2F3130A3AD350405060708090A0B0C86
:100080000D0E0F101112131415161718191A1B1C28
:100090001DAFB1B0B505010906A101050719E02999
:1000A000E715002501750195088102950175082560
:1000B00065190029658100C0090222000101008044
:1000C00032090400000103010100092101010001BE
:1000D0002223000705810308000A12011001000015
:1000E0000008C016DB2700010102000116034600CC
:1000F000520041004E005A006D0061006B00650027
:10010000790018034600720061006E007A006900F1
:100110006E0069006E0068006F00040309040102AC
:1001200004081020010101010101003600380037E8
:100130006D0411241FBECFE5D2E0DEBFCDBF10E0BD
:10014000A0E6B0E0E2E0FFE002C005900D92A23828
:10015000B107D9F720E0A2E8B0E001C01D92AA3FA4
:10016000B207E1F711E0C2E3D1E003C02297FE013C
:10017000C2D6C033D107D1F7A7D6C1C641CFA82F69
:10018000B92F80E090E041E050EA609530E009C08E
:100190002D9182279795879510F084279527305EBB
:1001A000C8F36F5FA8F30895EADF8D939D930895D8
:1001B000A6E088279927AA9569F00197E1F3B399FA
:1001C000FCCFB39BFECF81E09927A6B3019611F037
:1001D000A871D9F70895CF93CFB7CF93C395B39BA9
:1001E000E9F7B39B0BC0B39B09C0B39B07C0B39B9C
:1001F00005C0B39B03C0B39B01C0D5C00F92DF9372
:10020000C091DD00DD27CC51DF4F012EB39B03C031
:10021000DF910F90E6CF2F930F931F934F932FEF04
:100220004F6F06B303FB20F95F933F9350E03BE031
:1002300065C016B30126502953FDC89556B3012752
:1002400003FB25F92F7306B3B1F05027102713FBDA
:1002500026F906B22230F0F000C016B3012703FBE6
:1002600027F90126502906B22430E8F54F77206897
:1002700016B30000F6CF50274F7D206206B2102F34
:10028000000000C006B300265029102713FB26F9F2
:1002900006B2E2CF4F7B06B3206400C0DACF01265E
:1002A0005029187106B269F14E7F2160012F16B3F3
:1002B00028C0002650294D7F06B22260102F29C089
:1002C000012650294B7F06B22460012F2DC016B3A2
:1002D00001265029477F2860000006B22EC04F7EBD
:1002E00006B3206130C0422706B349930026502947
:1002F000102706B24FEF13FB20F9297F16B379F2CE
:10030000187159F10126502906B2012703FB21F982
:10031000237F06B371F2002650293150D0F006B287
:10032000102713FB22F9277E16B351F2012650291C
:10033000012703FB06B223F92F7C49F2000006B324
:10034000102713FB24F90026502906B22F7939F221
:1003500070CF10E21ABF002719C03B503195C31B64
:10036000D04010E21ABF0881033C09F10B34F9F0C8
:100370002091DB001981110F1213EDCF4A81441F28
:10038000093651F10D3211F0013E29F70093E200D8
:100390003F915F914F911F910F912F91DF910F909E
:1003A000CAB7C5FD1BCFCF91CFBFCF911895209174
:1003B000E200222369F31091E000112379F5343033
:1003C0007AF13093E0002093DC001091DD003BE0F7
:1003D000311B3093DD0024C00091E0000130F4F4C3
:1003E0000AE54F7049F43091770034FD1AC000934C
:1003F0007700C4ECD0E019C03091CF0034FD11C0BB
:100400000093CF00C0EDD0E010C0052710E000C081
:1004100021C0052710E0C89508BB14C03AE501C00B
:1004200032ED032EC0E0D0E032E017B31861C39A7A
:1004300008B317BB58E120E84FEF20FF052708BBA2
:10044000279517951C3F28F700004552B0F720FF6D
:100450000527279508BB17951C3FB8F629913A95B3
:1004600061F7077E1091E100110F08BBC250D04028
:1004700011F01093DB0010E21ABF086017B3177E6B
:10048000402F477E54E05A95F1F708BB17BB48BB95
:100490007FCF0F931F93CF93DF9300D0CDB7DEB7FD
:1004A0008C018091CF0084FD0CC04A83698393D274
:1004B00080E990E50197F1F700C0000069814A8169
:1004C000F0CFF8014283638362E0C80102960F9087
:1004D0000F90DF91CF911F910F9159C2CF93DF936E
:1004E000EC01D7DF40E060E0CE01DF91CF91D1CFCA
:1004F000E62FF0E0EA5EFF4F6491262F30E0220FF6
:10050000232F221F330B232B11F040E201C040E0C8
:100510006F77E4DF81E090E00895FC0186EB90E0E6
:100520009093DF008093DE0080818076803231F40A
:1005300081818A3019F483818093B80080E0089526
:10054000CF93DF93C6E6D0E08881229660E023D483
:1005500080E0CE36D807C1F761E086E01CD440E0E9
:1005600060E084EB90E0DF91CF91B8CFCF93DF9341
:1005700082E190E090938900809388008FE090E082
:10058000909387008093860046E650E0CCE8D0E068
:100590008EE690E0E5E9F0E0DA012C914E5F5F4FE6
:1005A0002883DC012D913D91CD013A8329839F0160
:1005B00026503109D9011C922F5F3F4FD9011C925F
:1005C0002F5F3F4FD9011C922F5F3F4FD9011C92E3
:1005D0002F5F3F4FD9011C922F5F3F4FD9011C92D3
:1005E00010822A963A96B0E04E365B07A9F6DF9164
:1005F000CF910895A5DFBACFDF92EF92FF920F93CC
:100600001F93CF93DF9302E910E0C0E0D0E0EE2427
:10061000E394F12C20918B00CE016AE070E058D475
:1006200084579F4F820F911DFC01D3808D2D90E048
:1006300000908A0002C0959587950A94E2F7817030
:10064000F801808336978081DDD390918A008111F3
:100650000AC0970102C0220F331F9A95E2F7C90121
:100660002D2D282B09C0F70102C0EE0FFF1F9A9510
:10067000E2F72E2F20952D2130918B00CE016AE0DC
:1006800070E026D484579F4F830F911DFC01238374
:100690002196065F1F4FC430D10509F0BBCFDF9113
:1006A000CF911F910F91FF90EF90DF9008954091AF
:1006B0008B0081E090E000908A0002C0880F991FB3
:1006C0000A94E2F7E3E9F0E050E0DF01A40FB51F80
:1006D00014972C9130E028233923232B19F0208103
:1006E0002F5F2083DF0111972C91222319F02081A5
:1006F000215020833A9620E0EB3BF20731F7089532
:1007000080918A008F5F80938A00883059F410921C
:100710008A0080918B008F5F80938B00833011F46F
:1007200010928B0008953F924F925F926F927F924A
:100730008F929F92AF92BF92CF92DF92EF92FF92F1
:100740000F931F93CF93DF9300D000D000D0CDB78D
:10075000DEB704E910E07FE8A72E70E0B72EE0E9ED
:10076000CE2EE0E0DE2EF1E9EF2EF0E0FF2EA2E942
:100770008A2EA0E09A2E83E990E09E838D83332415
:100780003394F8018081ED81FE81208130E088235F
:10079000C9F18091860090918700281739070CF0E5
:1007A0004DC0F801108240E060E084EB90E096DEFE
:1007B00087D29B01AC0164E1462E512C612C712C37
:1007C00029833A834B835C837BD2461A570A680A93
:1007D000790A29813A814B815C81420E531E641E45
:1007E000751E69837A838B839C83F5D069817A81B6
:1007F0008B819C811414150416041704A4F49B0126
:10080000AC01DECF80918800909189008217930718
:10081000ACF4F801308240E0ED81FE8136976081D2
:1008200084EB90E05BDEF5011082F6011082F701A7
:100830001082F4011082ED81FE811082065F1F4F4D
:10084000FAE0AF0EB11C8AE0C80ED11C9AE0E90EA6
:10085000F11CEAE08E0E911C8D819E810A969E838A
:100860008D8390E00C3B190709F08BCF26960FB6CD
:10087000F894DEBF0FBECDBFDF91CF911F910F91D6
:10088000FF90EF90DF90CF90BF90AF909F908F90B0
:100890007F906F905F904F903F9008951DD2209170
:1008A000820030918300621B730B7093850060930C
:1008B0008400603184E078072CF480E194E0861BAA
:1008C000970B2ED209D27093830060938200089513
:1008D00093DEEDDE15DF27DFE1CF8CE790E090932C
:1008E000B5008093B400F894BB9A27EA86E99CE0AF
:1008F000215080409040E1F700C00000BB987FD1BC
:1009000078941092B7001092B60062E086EB90E007
:100910003EC0DF92EF92FF920F931F93CF93DF932E
:10092000C8E0D0E0F12C80E8E82EDF2CDE0CD1BE50
:100930003FDC8C01043389E018070CF4FD2CE694AD
:10094000219799F78FEF8F0D81BFCF2DD0E02196A2
:1009500081B790E0C817D9078CF02ADC84539940FE
:1009600097FF03C09195819591098017910714F421
:10097000F1B68C0181B78F5F81BFEACFF1BEDF9105
:10098000CF911F910F91FF90EF90DF900895CF933B
:10099000C62F2091CF0024FF07C02091D00038E857
:1009A00023272093D00003C02AE52093CF00DC0149
:1009B000E1EDF0E09C2F9E0F8D918193892F8E1B8E
:1009C0001816D4F36C2F81ED90E0EEDBCC5FC09372
:1009D000CF00CF910895CF93DF938091E0008350B3
:1009E00087FDA8C09091DD002091DC002D3209F038
:1009F0009FC0883009F09CC0CCE0D0E0C91BD10971
:100A0000CC51DF4F83EC8093C4008AE5809377005C
:100A10001092BA008881807619F0CE017EDD7FC009
:100A20009A811092CD008981811106C01092CE006A
:100A30002DEC30E082E06FC0853019F49093E10036
:100A400067C0863009F04EC08B81813041F48AED59
:100A500090E09093DF008093DE0082E13FC082301F
:100A600041F488EB90E09093DF008093DE0082E217
:100A700035C08330F1F4911108C08AE191E0909380
:100A8000DF008093DE0084E029C0913041F482E0F1
:100A900091E09093DF008093DE0088E11FC09230E8
:100AA000E1F48CEE90E09093DF008093DE0086E12D
:100AB00015C0813241F48AEC90E09093DF0080937E
:100AC000DE0089E00BC0823241F485E990E090932A
:100AD000DF008093DE0083E201C080E090E4909329
:100AE000BA001DC0883069F0893019F49093E30092
:100AF0000FC08A3049F08B3059F48BE48093D000DA
:100B000007C023EE30E002C02DEC30E081E003C0EE
:100B10002DEC30E080E03093DF002093DE009F81F9
:100B2000911104C09E81981708F4892F8093760054
:100B30001092E0008091770084FF46C0809176009B
:100B40008F3F09F441C0C82F893008F0C8E08C1BE2
:100B5000809376008091C40098E889278093C40030
:100B6000CC2331F12091DE003091DF008091BA007A
:100B700086FF0BC0A5ECB0E0F9018C2F8A0F949191
:100B80009D9331968A13FBCF09C0D901E5ECF0E0C3
:100B90008C2F8E0F9D9191938E13FCCF8FEF8C0F26
:100BA00090E00196820F931F9093DF008093DE0008
:100BB0006C2F85EC90E0F8DACC5FCC3019F08FEF39
:100BC00080937600C093770084E196B3987131F4F6
:100BD0008150D9F71092E1001092DB00C1E0811141
:100BE000C0E08091B9008C1739F0C11103C0F894AE
:100BF00090DE7894C093B900DF91CF910895AC9ABC
:100C00008BB780628BBF8BE48093D0008AE58093A2
:100C1000CF00089583B7887F83BF8AB58C7F8160BA
:100C20008ABD83B7877F83BF83B7887F836083BF95
:100C3000089578941F920F920FB60F9211242F935C
:100C40003F938F939F93AF93BF938091BC009091FC
:100C5000BD00A091BE00B091BF003091BB002CE759
:100C6000230F2D3728F02FEF230F0196A11DB11D63
:100C70002093BB008093BC009093BD00A093BE0066
:100C8000B093BF008091C0009091C100A091C200BC
:100C9000B091C3000196A11DB11D8093C000909337
:100CA000C100A093C200B093C300BF91AF919F91C8
:100CB0008F913F912F910F900FBE0F901F9018951D
:100CC0002FB7F8946091BC007091BD008091BE0078
:100CD0009091BF002FBF08953FB7F8948091C00056
:100CE0009091C100A091C200B091C3002FB508B689
:100CF00002FE05C02F3F19F00196A11DB11D3FBF97
:100D00006627782F892F9A2F620F711D811D911DE3
:100D100042E0660F771F881F991F4A95D1F7089503
:100D20008E7F82309105E8F0000000000000000096
:100D300000000000000000000000000000000000B3
:100D400000000000000000000000000000000000A3
:100D500000000000000000000000000000000297FA
:100D6000E0CF0895789480B7806880BF80B78064B2
:100D700080BF8CB580648CBD8FEF8DBD80B7807FC8
:100D8000876080BF89B7846089BF44DF86B1876090
:100D900086B9379A0895CF93DF9390E0FC01E25E25
:100DA000FE4F2491FC01EC5DFE4F8491882339F1C4
:100DB00090E0FC01E25DFE4FA491B0E0FC01E45D37
:100DC000FE4F8491611106C09FB7F8948C912095D5
:100DD000822313C0623069F4C82FD0E09FB7F89423
:100DE0008C91322F309583238C938881822B88833A
:100DF00005C09FB7F8948C91822B8C939FBFDF9195
:100E0000CF910895282F30E0F901E25EFE4F9491D2
:100E1000F901EC5DFE4FE491EE23E1F0811103C096
:100E20008AB58F7304C0813021F48AB58F7C8ABD66
:100E300005C0843019F48CB58F7C8CBDF0E0E65D84
:100E4000FE4FE491F0E02081292381E090E021F43D
:100E500080E0089580E090E008950F931F93CF9372
:100E6000DF93EC018B01F80161918F01662341F062
:100E7000E881F9810190F081E02DCE010995F3CF51
:100E8000DF91CF911F910F910895EF92FF920F93F1
:100E90001F93CF93DF937C018A01EB01060F171F8D
:100EA000C017D10751F06991D701ED91FC910190E4
:100EB000F081E02DC7010995F3CFDF91CF911F910C
:100EC0000F91FF90EF9008954DDF94DB01DDFECF91
:100ED0000024552704C0080E591F880F991F00973A
:100EE00029F076956795B8F37105B9F7802D952FA0
:100EF0000895EE0FFF1F0590F491E02D0994F894EA
:020F0000FFCF21
:100F02000000FA00800000000100020005002C0031
:100F120050004F005200FF5A0000000078022D07D7
:020F2200450781
:00000001FF
